{
  "_format": "hh-sol-artifact-1",
  "contractName": "Factory",
  "sourceName": "contracts/CollectionFactory.sol",
  "abi": [
    {
      "anonymous": false,
      "inputs": [
        {
          "indexed": false,
          "internalType": "address",
          "name": "collection",
          "type": "address"
        },
        {
          "indexed": false,
          "internalType": "string",
          "name": "name",
          "type": "string"
        },
        {
          "indexed": false,
          "internalType": "string",
          "name": "symbol",
          "type": "string"
        }
      ],
      "name": "CollectionCreated",
      "type": "event"
    },
    {
      "anonymous": false,
      "inputs": [
        {
          "indexed": false,
          "internalType": "address",
          "name": "collection",
          "type": "address"
        },
        {
          "indexed": false,
          "internalType": "address",
          "name": "recipient",
          "type": "address"
        },
        {
          "indexed": false,
          "internalType": "uint256",
          "name": "tokenId",
          "type": "uint256"
        },
        {
          "indexed": false,
          "internalType": "string",
          "name": "tokenUri",
          "type": "string"
        }
      ],
      "name": "TokenMinted",
      "type": "event"
    },
    {
      "inputs": [
        {
          "internalType": "uint256",
          "name": "",
          "type": "uint256"
        }
      ],
      "name": "collections",
      "outputs": [
        {
          "internalType": "contract NFT",
          "name": "",
          "type": "address"
        }
      ],
      "stateMutability": "view",
      "type": "function"
    },
    {
      "inputs": [
        {
          "internalType": "string",
          "name": "name_",
          "type": "string"
        },
        {
          "internalType": "string",
          "name": "symbol_",
          "type": "string"
        }
      ],
      "name": "createCollection",
      "outputs": [
        {
          "internalType": "address",
          "name": "",
          "type": "address"
        }
      ],
      "stateMutability": "nonpayable",
      "type": "function"
    },
    {
      "inputs": [],
      "name": "getCollections",
      "outputs": [
        {
          "internalType": "contract NFT[]",
          "name": "",
          "type": "address[]"
        }
      ],
      "stateMutability": "view",
      "type": "function"
    },
    {
      "inputs": [
        {
          "internalType": "contract NFT",
          "name": "collection",
          "type": "address"
        },
        {
          "internalType": "address",
          "name": "to",
          "type": "address"
        },
        {
          "internalType": "uint256",
          "name": "tokenId",
          "type": "uint256"
        }
      ],
      "name": "mintToken",
      "outputs": [],
      "stateMutability": "nonpayable",
      "type": "function"
    }
  ],
  "bytecode": "0x608060405234801561001057600080fd5b50613f75806100206000396000f3fe60806040523480156200001157600080fd5b5060043610620000525760003560e01c8063176b9b75146200005757806346e63586146200008d5780636bec32da14620000af578063fdbda0ec14620000cf575b600080fd5b6200007560048036038101906200006f9190620006e9565b62000105565b604051620000849190620007b3565b60405180910390f35b6200009762000246565b604051620000a69190620008f8565b60405180910390f35b620000cd6004803603810190620000c79190620009cd565b6200035e565b005b620000ed6004803603810190620000e7919062000a29565b62000525565b604051620000fc919062000a6c565b60405180910390f35b6000808383604051620001189062000565565b6200012592919062000b12565b604051809103906000f08015801562000142573d6000803e3d6000fd5b5090506000819080600181540180825580915050600190039060005260206000200160009091909190916101000a81548173ffffffffffffffffffffffffffffffffffffffff021916908373ffffffffffffffffffffffffffffffffffffffff16021790555060018060008373ffffffffffffffffffffffffffffffffffffffff1673ffffffffffffffffffffffffffffffffffffffff16815260200190815260200160002060006101000a81548160ff0219169083151502179055507f3454b57f2dca4f5a54e8358d096ac9d1a0d2dab98991ddb89ff9ea1746260617818585604051620002349392919062000b4d565b60405180910390a18091505092915050565b60606000808054905067ffffffffffffffff8111156200026b576200026a620005a2565b5b6040519080825280602002602001820160405280156200029a5781602001602082028036833780820191505090505b50905060005b600080549050811015620003565760008181548110620002c557620002c462000b98565b5b9060005260206000200160009054906101000a900473ffffffffffffffffffffffffffffffffffffffff1682828151811062000306576200030562000b98565b5b602002602001019073ffffffffffffffffffffffffffffffffffffffff16908173ffffffffffffffffffffffffffffffffffffffff168152505080806200034d9062000bf6565b915050620002a0565b508091505090565b600160008473ffffffffffffffffffffffffffffffffffffffff1673ffffffffffffffffffffffffffffffffffffffff16815260200190815260200160002060009054906101000a900460ff16620003ed576040517f08c379a0000000000000000000000000000000000000000000000000000000008152600401620003e49062000cb9565b60405180910390fd5b8273ffffffffffffffffffffffffffffffffffffffff166340c10f1983836040518363ffffffff1660e01b81526004016200042a92919062000cec565b600060405180830381600087803b1580156200044557600080fd5b505af11580156200045a573d6000803e3d6000fd5b505050507fc9fee7cd4889f66f10ff8117316524260a5242e88e25e0656dfb3f4196a219178383838673ffffffffffffffffffffffffffffffffffffffff1663c87b56dd866040518263ffffffff1660e01b8152600401620004bd919062000d19565b600060405180830381865afa158015620004db573d6000803e3d6000fd5b505050506040513d6000823e3d601f19601f8201168201806040525081019062000506919062000db4565b60405162000518949392919062000e05565b60405180910390a1505050565b600081815481106200053657600080fd5b906000526020600020016000915054906101000a900473ffffffffffffffffffffffffffffffffffffffff1681565b6130e68062000e5a83390190565b6000604051905090565b600080fd5b600080fd5b600080fd5b600080fd5b6000601f19601f8301169050919050565b7f4e487b7100000000000000000000000000000000000000000000000000000000600052604160045260246000fd5b620005dc8262000591565b810181811067ffffffffffffffff82111715620005fe57620005fd620005a2565b5b80604052505050565b60006200061362000573565b9050620006218282620005d1565b919050565b600067ffffffffffffffff821115620006445762000643620005a2565b5b6200064f8262000591565b9050602081019050919050565b82818337600083830152505050565b6000620006826200067c8462000626565b62000607565b905082815260208101848484011115620006a157620006a06200058c565b5b620006ae8482856200065c565b509392505050565b600082601f830112620006ce57620006cd62000587565b5b8135620006e08482602086016200066b565b91505092915050565b600080604083850312156200070357620007026200057d565b5b600083013567ffffffffffffffff81111562000724576200072362000582565b5b6200073285828601620006b6565b925050602083013567ffffffffffffffff81111562000756576200075562000582565b5b6200076485828601620006b6565b9150509250929050565b600073ffffffffffffffffffffffffffffffffffffffff82169050919050565b60006200079b826200076e565b9050919050565b620007ad816200078e565b82525050565b6000602082019050620007ca6000830184620007a2565b92915050565b600081519050919050565b600082825260208201905092915050565b6000819050602082019050919050565b6000819050919050565b600062000827620008216200081b846200076e565b620007fc565b6200076e565b9050919050565b60006200083b8262000806565b9050919050565b60006200084f826200082e565b9050919050565b620008618162000842565b82525050565b600062000875838362000856565b60208301905092915050565b6000602082019050919050565b60006200089b82620007d0565b620008a78185620007db565b9350620008b483620007ec565b8060005b83811015620008eb578151620008cf888262000867565b9750620008dc8362000881565b925050600181019050620008b8565b5085935050505092915050565b600060208201905081810360008301526200091481846200088e565b905092915050565b600062000929826200078e565b9050919050565b6200093b816200091c565b81146200094757600080fd5b50565b6000813590506200095b8162000930565b92915050565b6200096c816200078e565b81146200097857600080fd5b50565b6000813590506200098c8162000961565b92915050565b6000819050919050565b620009a78162000992565b8114620009b357600080fd5b50565b600081359050620009c7816200099c565b92915050565b600080600060608486031215620009e957620009e86200057d565b5b6000620009f9868287016200094a565b935050602062000a0c868287016200097b565b925050604062000a1f86828701620009b6565b9150509250925092565b60006020828403121562000a425762000a416200057d565b5b600062000a5284828501620009b6565b91505092915050565b62000a668162000842565b82525050565b600060208201905062000a83600083018462000a5b565b92915050565b600081519050919050565b600082825260208201905092915050565b60005b8381101562000ac557808201518184015260208101905062000aa8565b60008484015250505050565b600062000ade8262000a89565b62000aea818562000a94565b935062000afc81856020860162000aa5565b62000b078162000591565b840191505092915050565b6000604082019050818103600083015262000b2e818562000ad1565b9050818103602083015262000b44818462000ad1565b90509392505050565b600060608201905062000b646000830186620007a2565b818103602083015262000b78818562000ad1565b9050818103604083015262000b8e818462000ad1565b9050949350505050565b7f4e487b7100000000000000000000000000000000000000000000000000000000600052603260045260246000fd5b7f4e487b7100000000000000000000000000000000000000000000000000000000600052601160045260246000fd5b600062000c038262000992565b91507fffffffffffffffffffffffffffffffffffffffffffffffffffffffffffffffff820362000c385762000c3762000bc7565b5b600182019050919050565b7f6d696e74546f6b656e3a205468697320636f6c6c656374696f6e20776173206e60008201527f6f742063726561746564206279207468697320666163746f72792e0000000000602082015250565b600062000ca1603b8362000a94565b915062000cae8262000c43565b604082019050919050565b6000602082019050818103600083015262000cd48162000c92565b9050919050565b62000ce68162000992565b82525050565b600060408201905062000d036000830185620007a2565b62000d12602083018462000cdb565b9392505050565b600060208201905062000d30600083018462000cdb565b92915050565b600062000d4d62000d478462000626565b62000607565b90508281526020810184848401111562000d6c5762000d6b6200058c565b5b62000d7984828562000aa5565b509392505050565b600082601f83011262000d995762000d9862000587565b5b815162000dab84826020860162000d36565b91505092915050565b60006020828403121562000dcd5762000dcc6200057d565b5b600082015167ffffffffffffffff81111562000dee5762000ded62000582565b5b62000dfc8482850162000d81565b91505092915050565b600060808201905062000e1c6000830187620007a2565b62000e2b6020830186620007a2565b62000e3a604083018562000cdb565b818103606083015262000e4e818462000ad1565b90509594505050505056fe60806040523480156200001157600080fd5b50604051620030e6380380620030e68339818101604052810190620000379190620002e8565b818181600090816200004a9190620005b8565b5080600190816200005c9190620005b8565b5050506200007f620000736200008760201b60201c565b6200008f60201b60201c565b50506200069f565b600033905090565b6000600660009054906101000a900473ffffffffffffffffffffffffffffffffffffffff16905081600660006101000a81548173ffffffffffffffffffffffffffffffffffffffff021916908373ffffffffffffffffffffffffffffffffffffffff1602179055508173ffffffffffffffffffffffffffffffffffffffff168173ffffffffffffffffffffffffffffffffffffffff167f8be0079c531659141344cd1fd0a4f28419497f9722a3daafe3b4186f6b6457e060405160405180910390a35050565b6000604051905090565b600080fd5b600080fd5b600080fd5b600080fd5b6000601f19601f8301169050919050565b7f4e487b7100000000000000000000000000000000000000000000000000000000600052604160045260246000fd5b620001be8262000173565b810181811067ffffffffffffffff82111715620001e057620001df62000184565b5b80604052505050565b6000620001f562000155565b9050620002038282620001b3565b919050565b600067ffffffffffffffff82111562000226576200022562000184565b5b620002318262000173565b9050602081019050919050565b60005b838110156200025e57808201518184015260208101905062000241565b60008484015250505050565b6000620002816200027b8462000208565b620001e9565b905082815260208101848484011115620002a0576200029f6200016e565b5b620002ad8482856200023e565b509392505050565b600082601f830112620002cd57620002cc62000169565b5b8151620002df8482602086016200026a565b91505092915050565b600080604083850312156200030257620003016200015f565b5b600083015167ffffffffffffffff81111562000323576200032262000164565b5b6200033185828601620002b5565b925050602083015167ffffffffffffffff81111562000355576200035462000164565b5b6200036385828601620002b5565b9150509250929050565b600081519050919050565b7f4e487b7100000000000000000000000000000000000000000000000000000000600052602260045260246000fd5b60006002820490506001821680620003c057607f821691505b602082108103620003d657620003d562000378565b5b50919050565b60008190508160005260206000209050919050565b60006020601f8301049050919050565b600082821b905092915050565b600060088302620004407fffffffffffffffffffffffffffffffffffffffffffffffffffffffffffffffff8262000401565b6200044c868362000401565b95508019841693508086168417925050509392505050565b6000819050919050565b6000819050919050565b600062000499620004936200048d8462000464565b6200046e565b62000464565b9050919050565b6000819050919050565b620004b58362000478565b620004cd620004c482620004a0565b8484546200040e565b825550505050565b600090565b620004e4620004d5565b620004f1818484620004aa565b505050565b5b8181101562000519576200050d600082620004da565b600181019050620004f7565b5050565b601f82111562000568576200053281620003dc565b6200053d84620003f1565b810160208510156200054d578190505b620005656200055c85620003f1565b830182620004f6565b50505b505050565b600082821c905092915050565b60006200058d600019846008026200056d565b1980831691505092915050565b6000620005a883836200057a565b9150826002028217905092915050565b620005c3826200036d565b67ffffffffffffffff811115620005df57620005de62000184565b5b620005eb8254620003a7565b620005f88282856200051d565b600060209050601f8311600181146200063057600084156200061b578287015190505b6200062785826200059a565b86555062000697565b601f1984166200064086620003dc565b60005b828110156200066a5784890151825560018201915060208501945060208101905062000643565b868310156200068a578489015162000686601f8916826200057a565b8355505b6001600288020188555050505b505050505050565b612a3780620006af6000396000f3fe608060405234801561001057600080fd5b50600436106101165760003560e01c8063715018a6116100a2578063a22cb46511610071578063a22cb465146102cb578063b88d4fde146102e7578063c87b56dd14610303578063e985e9c514610333578063f2fde38b1461036357610116565b8063715018a6146102695780638da5cb5b1461027357806395d89b4114610291578063a1448194146102af57610116565b806323b872dd116100e957806323b872dd146101b557806340c10f19146101d157806342842e0e146101ed5780636352211e1461020957806370a082311461023957610116565b806301ffc9a71461011b57806306fdde031461014b578063081812fc14610169578063095ea7b314610199575b600080fd5b61013560048036038101906101309190611b9e565b61037f565b6040516101429190611be6565b60405180910390f35b610153610461565b6040516101609190611c91565b60405180910390f35b610183600480360381019061017e9190611ce9565b6104f3565b6040516101909190611d57565b60405180910390f35b6101b360048036038101906101ae9190611d9e565b610539565b005b6101cf60048036038101906101ca9190611dde565b610650565b005b6101eb60048036038101906101e69190611d9e565b6106b0565b005b61020760048036038101906102029190611dde565b6106c6565b005b610223600480360381019061021e9190611ce9565b6106e6565b6040516102309190611d57565b60405180910390f35b610253600480360381019061024e9190611e31565b61076c565b6040516102609190611e6d565b60405180910390f35b610271610823565b005b61027b610837565b6040516102889190611d57565b60405180910390f35b610299610861565b6040516102a69190611c91565b60405180910390f35b6102c960048036038101906102c49190611d9e565b6108f3565b005b6102e560048036038101906102e09190611eb4565b610909565b005b61030160048036038101906102fc9190612029565b61091f565b005b61031d60048036038101906103189190611ce9565b610981565b60405161032a9190611c91565b60405180910390f35b61034d600480360381019061034891906120ac565b6109e9565b60405161035a9190611be6565b60405180910390f35b61037d60048036038101906103789190611e31565b610a7d565b005b60007f80ac58cd000000000000000000000000000000000000000000000000000000007bffffffffffffffffffffffffffffffffffffffffffffffffffffffff1916827bffffffffffffffffffffffffffffffffffffffffffffffffffffffff1916148061044a57507f5b5e139f000000000000000000000000000000000000000000000000000000007bffffffffffffffffffffffffffffffffffffffffffffffffffffffff1916827bffffffffffffffffffffffffffffffffffffffffffffffffffffffff1916145b8061045a575061045982610b00565b5b9050919050565b6060600080546104709061211b565b80601f016020809104026020016040519081016040528092919081815260200182805461049c9061211b565b80156104e95780601f106104be576101008083540402835291602001916104e9565b820191906000526020600020905b8154815290600101906020018083116104cc57829003601f168201915b5050505050905090565b60006104fe82610b6a565b6004600083815260200190815260200160002060009054906101000a900473ffffffffffffffffffffffffffffffffffffffff169050919050565b6000610544826106e6565b90508073ffffffffffffffffffffffffffffffffffffffff168373ffffffffffffffffffffffffffffffffffffffff16036105b4576040517f08c379a00000000000000000000000000000000000000000000000000000000081526004016105ab906121be565b60405180910390fd5b8073ffffffffffffffffffffffffffffffffffffffff166105d3610bb5565b73ffffffffffffffffffffffffffffffffffffffff1614806106025750610601816105fc610bb5565b6109e9565b5b610641576040517f08c379a000000000000000000000000000000000000000000000000000000000815260040161063890612250565b60405180910390fd5b61064b8383610bbd565b505050565b61066161065b610bb5565b82610c76565b6106a0576040517f08c379a0000000000000000000000000000000000000000000000000000000008152600401610697906122e2565b60405180910390fd5b6106ab838383610d0b565b505050565b6106b8611004565b6106c28282611082565b5050565b6106e18383836040518060200160405280600081525061091f565b505050565b6000806106f28361129f565b9050600073ffffffffffffffffffffffffffffffffffffffff168173ffffffffffffffffffffffffffffffffffffffff1603610763576040517f08c379a000000000000000000000000000000000000000000000000000000000815260040161075a9061234e565b60405180910390fd5b80915050919050565b60008073ffffffffffffffffffffffffffffffffffffffff168273ffffffffffffffffffffffffffffffffffffffff16036107dc576040517f08c379a00000000000000000000000000000000000000000000000000000000081526004016107d3906123e0565b60405180910390fd5b600360008373ffffffffffffffffffffffffffffffffffffffff1673ffffffffffffffffffffffffffffffffffffffff168152602001908152602001600020549050919050565b61082b611004565b61083560006112dc565b565b6000600660009054906101000a900473ffffffffffffffffffffffffffffffffffffffff16905090565b6060600180546108709061211b565b80601f016020809104026020016040519081016040528092919081815260200182805461089c9061211b565b80156108e95780601f106108be576101008083540402835291602001916108e9565b820191906000526020600020905b8154815290600101906020018083116108cc57829003601f168201915b5050505050905090565b6108fb611004565b61090582826113a2565b5050565b61091b610914610bb5565b83836113c0565b5050565b61093061092a610bb5565b83610c76565b61096f576040517f08c379a0000000000000000000000000000000000000000000000000000000008152600401610966906122e2565b60405180910390fd5b61097b8484848461152c565b50505050565b606061098c82610b6a565b6000610996611588565b905060008151116109b657604051806020016040528060008152506109e1565b806109c08461159f565b6040516020016109d192919061243c565b6040516020818303038152906040525b915050919050565b6000600560008473ffffffffffffffffffffffffffffffffffffffff1673ffffffffffffffffffffffffffffffffffffffff16815260200190815260200160002060008373ffffffffffffffffffffffffffffffffffffffff1673ffffffffffffffffffffffffffffffffffffffff16815260200190815260200160002060009054906101000a900460ff16905092915050565b610a85611004565b600073ffffffffffffffffffffffffffffffffffffffff168173ffffffffffffffffffffffffffffffffffffffff1603610af4576040517f08c379a0000000000000000000000000000000000000000000000000000000008152600401610aeb906124d2565b60405180910390fd5b610afd816112dc565b50565b60007f01ffc9a7000000000000000000000000000000000000000000000000000000007bffffffffffffffffffffffffffffffffffffffffffffffffffffffff1916827bffffffffffffffffffffffffffffffffffffffffffffffffffffffff1916149050919050565b610b738161166d565b610bb2576040517f08c379a0000000000000000000000000000000000000000000000000000000008152600401610ba99061234e565b60405180910390fd5b50565b600033905090565b816004600083815260200190815260200160002060006101000a81548173ffffffffffffffffffffffffffffffffffffffff021916908373ffffffffffffffffffffffffffffffffffffffff160217905550808273ffffffffffffffffffffffffffffffffffffffff16610c30836106e6565b73ffffffffffffffffffffffffffffffffffffffff167f8c5be1e5ebec7d5bd14f71427d1e84f3dd0314c0f7b2291e5b200ac8c7c3b92560405160405180910390a45050565b600080610c82836106e6565b90508073ffffffffffffffffffffffffffffffffffffffff168473ffffffffffffffffffffffffffffffffffffffff161480610cc45750610cc381856109e9565b5b80610d0257508373ffffffffffffffffffffffffffffffffffffffff16610cea846104f3565b73ffffffffffffffffffffffffffffffffffffffff16145b91505092915050565b8273ffffffffffffffffffffffffffffffffffffffff16610d2b826106e6565b73ffffffffffffffffffffffffffffffffffffffff1614610d81576040517f08c379a0000000000000000000000000000000000000000000000000000000008152600401610d7890612564565b60405180910390fd5b600073ffffffffffffffffffffffffffffffffffffffff168273ffffffffffffffffffffffffffffffffffffffff1603610df0576040517f08c379a0000000000000000000000000000000000000000000000000000000008152600401610de7906125f6565b60405180910390fd5b610dfd83838360016116ae565b8273ffffffffffffffffffffffffffffffffffffffff16610e1d826106e6565b73ffffffffffffffffffffffffffffffffffffffff1614610e73576040517f08c379a0000000000000000000000000000000000000000000000000000000008152600401610e6a90612564565b60405180910390fd5b6004600082815260200190815260200160002060006101000a81549073ffffffffffffffffffffffffffffffffffffffff02191690556001600360008573ffffffffffffffffffffffffffffffffffffffff1673ffffffffffffffffffffffffffffffffffffffff168152602001908152602001600020600082825403925050819055506001600360008473ffffffffffffffffffffffffffffffffffffffff1673ffffffffffffffffffffffffffffffffffffffff16815260200190815260200160002060008282540192505081905550816002600083815260200190815260200160002060006101000a81548173ffffffffffffffffffffffffffffffffffffffff021916908373ffffffffffffffffffffffffffffffffffffffff160217905550808273ffffffffffffffffffffffffffffffffffffffff168473ffffffffffffffffffffffffffffffffffffffff167fddf252ad1be2c89b69c2b068fc378daa952ba7f163c4a11628f55a4df523b3ef60405160405180910390a4610fff83838360016117d4565b505050565b61100c610bb5565b73ffffffffffffffffffffffffffffffffffffffff1661102a610837565b73ffffffffffffffffffffffffffffffffffffffff1614611080576040517f08c379a000000000000000000000000000000000000000000000000000000000815260040161107790612662565b60405180910390fd5b565b600073ffffffffffffffffffffffffffffffffffffffff168273ffffffffffffffffffffffffffffffffffffffff16036110f1576040517f08c379a00000000000000000000000000000000000000000000000000000000081526004016110e8906126ce565b60405180910390fd5b6110fa8161166d565b1561113a576040517f08c379a00000000000000000000000000000000000000000000000000000000081526004016111319061273a565b60405180910390fd5b6111486000838360016116ae565b6111518161166d565b15611191576040517f08c379a00000000000000000000000000000000000000000000000000000000081526004016111889061273a565b60405180910390fd5b6001600360008473ffffffffffffffffffffffffffffffffffffffff1673ffffffffffffffffffffffffffffffffffffffff16815260200190815260200160002060008282540192505081905550816002600083815260200190815260200160002060006101000a81548173ffffffffffffffffffffffffffffffffffffffff021916908373ffffffffffffffffffffffffffffffffffffffff160217905550808273ffffffffffffffffffffffffffffffffffffffff16600073ffffffffffffffffffffffffffffffffffffffff167fddf252ad1be2c89b69c2b068fc378daa952ba7f163c4a11628f55a4df523b3ef60405160405180910390a461129b6000838360016117d4565b5050565b60006002600083815260200190815260200160002060009054906101000a900473ffffffffffffffffffffffffffffffffffffffff169050919050565b6000600660009054906101000a900473ffffffffffffffffffffffffffffffffffffffff16905081600660006101000a81548173ffffffffffffffffffffffffffffffffffffffff021916908373ffffffffffffffffffffffffffffffffffffffff1602179055508173ffffffffffffffffffffffffffffffffffffffff168173ffffffffffffffffffffffffffffffffffffffff167f8be0079c531659141344cd1fd0a4f28419497f9722a3daafe3b4186f6b6457e060405160405180910390a35050565b6113bc8282604051806020016040528060008152506117da565b5050565b8173ffffffffffffffffffffffffffffffffffffffff168373ffffffffffffffffffffffffffffffffffffffff160361142e576040517f08c379a0000000000000000000000000000000000000000000000000000000008152600401611425906127a6565b60405180910390fd5b80600560008573ffffffffffffffffffffffffffffffffffffffff1673ffffffffffffffffffffffffffffffffffffffff16815260200190815260200160002060008473ffffffffffffffffffffffffffffffffffffffff1673ffffffffffffffffffffffffffffffffffffffff16815260200190815260200160002060006101000a81548160ff0219169083151502179055508173ffffffffffffffffffffffffffffffffffffffff168373ffffffffffffffffffffffffffffffffffffffff167f17307eab39ab6107e8899845ad3d59bd9653f200f220920489ca2b5937696c318360405161151f9190611be6565b60405180910390a3505050565b611537848484610d0b565b61154384848484611835565b611582576040517f08c379a000000000000000000000000000000000000000000000000000000000815260040161157990612838565b60405180910390fd5b50505050565b606060405180602001604052806000815250905090565b6060600060016115ae846119bc565b01905060008167ffffffffffffffff8111156115cd576115cc611efe565b5b6040519080825280601f01601f1916602001820160405280156115ff5781602001600182028036833780820191505090505b509050600082602001820190505b600115611662578080600190039150507f3031323334353637383961626364656600000000000000000000000000000000600a86061a8153600a858161165657611655612858565b5b0494506000850361160d575b819350505050919050565b60008073ffffffffffffffffffffffffffffffffffffffff1661168f8361129f565b73ffffffffffffffffffffffffffffffffffffffff1614159050919050565b60018111156117ce57600073ffffffffffffffffffffffffffffffffffffffff168473ffffffffffffffffffffffffffffffffffffffff16146117425780600360008673ffffffffffffffffffffffffffffffffffffffff1673ffffffffffffffffffffffffffffffffffffffff168152602001908152602001600020600082825461173a91906128b6565b925050819055505b600073ffffffffffffffffffffffffffffffffffffffff168373ffffffffffffffffffffffffffffffffffffffff16146117cd5780600360008573ffffffffffffffffffffffffffffffffffffffff1673ffffffffffffffffffffffffffffffffffffffff16815260200190815260200160002060008282546117c591906128ea565b925050819055505b5b50505050565b50505050565b6117e48383611082565b6117f16000848484611835565b611830576040517f08c379a000000000000000000000000000000000000000000000000000000000815260040161182790612838565b60405180910390fd5b505050565b60006118568473ffffffffffffffffffffffffffffffffffffffff16611b0f565b156119af578373ffffffffffffffffffffffffffffffffffffffff1663150b7a0261187f610bb5565b8786866040518563ffffffff1660e01b81526004016118a19493929190612973565b6020604051808303816000875af19250505080156118dd57506040513d601f19601f820116820180604052508101906118da91906129d4565b60015b61195f573d806000811461190d576040519150601f19603f3d011682016040523d82523d6000602084013e611912565b606091505b506000815103611957576040517f08c379a000000000000000000000000000000000000000000000000000000000815260040161194e90612838565b60405180910390fd5b805181602001fd5b63150b7a0260e01b7bffffffffffffffffffffffffffffffffffffffffffffffffffffffff1916817bffffffffffffffffffffffffffffffffffffffffffffffffffffffff1916149150506119b4565b600190505b949350505050565b600080600090507a184f03e93ff9f4daa797ed6e38ed64bf6a1f0100000000000000008310611a1a577a184f03e93ff9f4daa797ed6e38ed64bf6a1f0100000000000000008381611a1057611a0f612858565b5b0492506040810190505b6d04ee2d6d415b85acef81000000008310611a57576d04ee2d6d415b85acef81000000008381611a4d57611a4c612858565b5b0492506020810190505b662386f26fc100008310611a8657662386f26fc100008381611a7c57611a7b612858565b5b0492506010810190505b6305f5e1008310611aaf576305f5e1008381611aa557611aa4612858565b5b0492506008810190505b6127108310611ad4576127108381611aca57611ac9612858565b5b0492506004810190505b60648310611af75760648381611aed57611aec612858565b5b0492506002810190505b600a8310611b06576001810190505b80915050919050565b6000808273ffffffffffffffffffffffffffffffffffffffff163b119050919050565b6000604051905090565b600080fd5b600080fd5b60007fffffffff0000000000000000000000000000000000000000000000000000000082169050919050565b611b7b81611b46565b8114611b8657600080fd5b50565b600081359050611b9881611b72565b92915050565b600060208284031215611bb457611bb3611b3c565b5b6000611bc284828501611b89565b91505092915050565b60008115159050919050565b611be081611bcb565b82525050565b6000602082019050611bfb6000830184611bd7565b92915050565b600081519050919050565b600082825260208201905092915050565b60005b83811015611c3b578082015181840152602081019050611c20565b60008484015250505050565b6000601f19601f8301169050919050565b6000611c6382611c01565b611c6d8185611c0c565b9350611c7d818560208601611c1d565b611c8681611c47565b840191505092915050565b60006020820190508181036000830152611cab8184611c58565b905092915050565b6000819050919050565b611cc681611cb3565b8114611cd157600080fd5b50565b600081359050611ce381611cbd565b92915050565b600060208284031215611cff57611cfe611b3c565b5b6000611d0d84828501611cd4565b91505092915050565b600073ffffffffffffffffffffffffffffffffffffffff82169050919050565b6000611d4182611d16565b9050919050565b611d5181611d36565b82525050565b6000602082019050611d6c6000830184611d48565b92915050565b611d7b81611d36565b8114611d8657600080fd5b50565b600081359050611d9881611d72565b92915050565b60008060408385031215611db557611db4611b3c565b5b6000611dc385828601611d89565b9250506020611dd485828601611cd4565b9150509250929050565b600080600060608486031215611df757611df6611b3c565b5b6000611e0586828701611d89565b9350506020611e1686828701611d89565b9250506040611e2786828701611cd4565b9150509250925092565b600060208284031215611e4757611e46611b3c565b5b6000611e5584828501611d89565b91505092915050565b611e6781611cb3565b82525050565b6000602082019050611e826000830184611e5e565b92915050565b611e9181611bcb565b8114611e9c57600080fd5b50565b600081359050611eae81611e88565b92915050565b60008060408385031215611ecb57611eca611b3c565b5b6000611ed985828601611d89565b9250506020611eea85828601611e9f565b9150509250929050565b600080fd5b600080fd5b7f4e487b7100000000000000000000000000000000000000000000000000000000600052604160045260246000fd5b611f3682611c47565b810181811067ffffffffffffffff82111715611f5557611f54611efe565b5b80604052505050565b6000611f68611b32565b9050611f748282611f2d565b919050565b600067ffffffffffffffff821115611f9457611f93611efe565b5b611f9d82611c47565b9050602081019050919050565b82818337600083830152505050565b6000611fcc611fc784611f79565b611f5e565b905082815260208101848484011115611fe857611fe7611ef9565b5b611ff3848285611faa565b509392505050565b600082601f8301126120105761200f611ef4565b5b8135612020848260208601611fb9565b91505092915050565b6000806000806080858703121561204357612042611b3c565b5b600061205187828801611d89565b945050602061206287828801611d89565b935050604061207387828801611cd4565b925050606085013567ffffffffffffffff81111561209457612093611b41565b5b6120a087828801611ffb565b91505092959194509250565b600080604083850312156120c3576120c2611b3c565b5b60006120d185828601611d89565b92505060206120e285828601611d89565b9150509250929050565b7f4e487b7100000000000000000000000000000000000000000000000000000000600052602260045260246000fd5b6000600282049050600182168061213357607f821691505b602082108103612146576121456120ec565b5b50919050565b7f4552433732313a20617070726f76616c20746f2063757272656e74206f776e6560008201527f7200000000000000000000000000000000000000000000000000000000000000602082015250565b60006121a8602183611c0c565b91506121b38261214c565b604082019050919050565b600060208201905081810360008301526121d78161219b565b9050919050565b7f4552433732313a20617070726f76652063616c6c6572206973206e6f7420746f60008201527f6b656e206f776e6572206f7220617070726f76656420666f7220616c6c000000602082015250565b600061223a603d83611c0c565b9150612245826121de565b604082019050919050565b600060208201905081810360008301526122698161222d565b9050919050565b7f4552433732313a2063616c6c6572206973206e6f7420746f6b656e206f776e6560008201527f72206f7220617070726f76656400000000000000000000000000000000000000602082015250565b60006122cc602d83611c0c565b91506122d782612270565b604082019050919050565b600060208201905081810360008301526122fb816122bf565b9050919050565b7f4552433732313a20696e76616c696420746f6b656e2049440000000000000000600082015250565b6000612338601883611c0c565b915061234382612302565b602082019050919050565b600060208201905081810360008301526123678161232b565b9050919050565b7f4552433732313a2061646472657373207a65726f206973206e6f74206120766160008201527f6c6964206f776e65720000000000000000000000000000000000000000000000602082015250565b60006123ca602983611c0c565b91506123d58261236e565b604082019050919050565b600060208201905081810360008301526123f9816123bd565b9050919050565b600081905092915050565b600061241682611c01565b6124208185612400565b9350612430818560208601611c1d565b80840191505092915050565b6000612448828561240b565b9150612454828461240b565b91508190509392505050565b7f4f776e61626c653a206e6577206f776e657220697320746865207a65726f206160008201527f6464726573730000000000000000000000000000000000000000000000000000602082015250565b60006124bc602683611c0c565b91506124c782612460565b604082019050919050565b600060208201905081810360008301526124eb816124af565b9050919050565b7f4552433732313a207472616e736665722066726f6d20696e636f72726563742060008201527f6f776e6572000000000000000000000000000000000000000000000000000000602082015250565b600061254e602583611c0c565b9150612559826124f2565b604082019050919050565b6000602082019050818103600083015261257d81612541565b9050919050565b7f4552433732313a207472616e7366657220746f20746865207a65726f2061646460008201527f7265737300000000000000000000000000000000000000000000000000000000602082015250565b60006125e0602483611c0c565b91506125eb82612584565b604082019050919050565b6000602082019050818103600083015261260f816125d3565b9050919050565b7f4f776e61626c653a2063616c6c6572206973206e6f7420746865206f776e6572600082015250565b600061264c602083611c0c565b915061265782612616565b602082019050919050565b6000602082019050818103600083015261267b8161263f565b9050919050565b7f4552433732313a206d696e7420746f20746865207a65726f2061646472657373600082015250565b60006126b8602083611c0c565b91506126c382612682565b602082019050919050565b600060208201905081810360008301526126e7816126ab565b9050919050565b7f4552433732313a20746f6b656e20616c7265616479206d696e74656400000000600082015250565b6000612724601c83611c0c565b915061272f826126ee565b602082019050919050565b6000602082019050818103600083015261275381612717565b9050919050565b7f4552433732313a20617070726f766520746f2063616c6c657200000000000000600082015250565b6000612790601983611c0c565b915061279b8261275a565b602082019050919050565b600060208201905081810360008301526127bf81612783565b9050919050565b7f4552433732313a207472616e7366657220746f206e6f6e20455243373231526560008201527f63656976657220696d706c656d656e7465720000000000000000000000000000602082015250565b6000612822603283611c0c565b915061282d826127c6565b604082019050919050565b6000602082019050818103600083015261285181612815565b9050919050565b7f4e487b7100000000000000000000000000000000000000000000000000000000600052601260045260246000fd5b7f4e487b7100000000000000000000000000000000000000000000000000000000600052601160045260246000fd5b60006128c182611cb3565b91506128cc83611cb3565b92508282039050818111156128e4576128e3612887565b5b92915050565b60006128f582611cb3565b915061290083611cb3565b925082820190508082111561291857612917612887565b5b92915050565b600081519050919050565b600082825260208201905092915050565b60006129458261291e565b61294f8185612929565b935061295f818560208601611c1d565b61296881611c47565b840191505092915050565b60006080820190506129886000830187611d48565b6129956020830186611d48565b6129a26040830185611e5e565b81810360608301526129b4818461293a565b905095945050505050565b6000815190506129ce81611b72565b92915050565b6000602082840312156129ea576129e9611b3c565b5b60006129f8848285016129bf565b9150509291505056fea264697066735822122081d9d8c64356d0e104979bae9fd303d87ab44f765dc881b729d58f590204c32e64736f6c63430008110033a26469706673582212201a422c880efbe2ec9e023677fcc599b025934c5ea2906e73fa5ca5ef36d2432d64736f6c63430008110033",
  "linkReferences": {},
  "deployedLinkReferences": {}
}